ACAM00547
HFDTE250806
HFFXA050
HFPLTPilot:  Hans          Binder   
HFGIDGliderType: DG 808B  
HFGIDGliderID:  73
HFDTM100Datum: 
HFRFWFIRMWAREVERSION: 6.0   
HFRHWHARDWAREVERSION: 39
HFSITSite: Sundre                          
HFTZOTimezone: 0
HFUNTUnits: km,m,m/s
I033638FXA3941ENL4247REX
C150704173000250806000100
C0000000N00000000E0000TAKEOFF    
C5019910N11552410W0041FAIRMONT HOT
C0000000N00000000E0000LANDING    
B1819525019698N11552319WV0076400000000003000192
B1820005019698N11552319WV0076400000000001000224
B1820095019698N11552319WV0076400000000001000224
B1820185019698N11552319WV0077100000000002000224
B1820295019698N11552319WV0077100000000003000224
B1820385019698N11552319WV0077100000000002000224
B1820485019698N11552319WV0077100000000002000224
B1820575019698N11552319WV0077100000000001000224
B1821025019678N11552249WV0077100764045001000160
B1821105019678N11552260WA0077100764045001000000
B1821185019678N11552260WA0077100764045001000000
B1821265019689N11552269WV0077100764045001000160
B1821325019678N11552269WV0077100764045000000160
B1821485019698N11552299WA0077100820000001015000
B1822045019698N11552299WA0077100819000001015000
B1822205019698N11552289WA0077100818000001015000
B1822365019698N11552289WA0077100816000002015000
B1829265019689N11552359WA0077900813000002015000
B1829345019689N11552359WA0077900813000001015000
B1829425019689N11552359WA0077100814000002015000
B1829505019689N11552359WA0077900814000003015000
B1829585019689N11552359WA0077100814000003015000
B1830065019689N11552359WA0077100814000003015000
B1830145019689N11552359WA0077100814000009015000
B1830225019689N11552359WA0077100814000014015000
B1830305019689N11552359WA0077100814000011015000
B1830385019689N11552359WA0077900815000006015000
B1830465019689N11552359WA0077900814000011015000
B1830545019689N11552359WA0077900813000195015002
B1831025019689N11552359WA0077100813000195015002
B1831105019698N11552369WA0077900813000195015002
B1831185019698N11552379WA0077100814000195015002
B1831265019708N11552379WA0077100814000195015002
B1831345019748N11552390WA0077900814000195015002
B1831505019949N11552449WA0080700843000195015002
B1832065020148N11552489WA0087000913000195015002
B1832225020348N11552518WA0092800965000195015002
B1832385020558N11552549WA0097801019000195015002
B1832545020748N11552359WA0103001073000195015002
B1833105020908N11552129WA0108801133000195015002
B1833265021059N11551849WA0113801179000195015002
B1833425021218N11551530WA0117601221000195015002
B1833585021369N11551159WA0121301262000195015002
B1834145021579N11550888WA0129401337000195015002
B1834305021438N11550899WA0135301408000195015002
B1834465021579N11550758WA0141401467000195015002
B1835025021659N11550379WA0144501507000195015002
B1835185021789N11550028WA0149801561000195015002
B1835345021938N11549679WA0154401608000195015002
B1835505022118N11549399WA0161201677000195015002
B1836065022338N11549168WA0165201723000195015002
B1836225022628N11549119WA0169001761000195015002
B1836385022898N11549168WA0177701843000195015002
B1836545023169N11549289WA0183201888000195015002
B1837105023438N11549428WA0186201939000195015002
B1837265023719N11549558WA0192601993000195015002
B1837425023998N11549598WA0199902072000195015002
B1837585024258N11549539WA0206402136000195015002
B1838145024468N11549558WA0208802172000195015002
B1838305024249N11549419WA0210402179000195015002
B1838465023989N11549349WA0215202225000195015002
B1839025023778N11549149WA0221802297000195015002
B1839185023648N11548769WA0228402371000195015002
B1839345023429N11548559WA0233402423000195015002
B1839505023549N11548679WA0236702448000195015002
B1840065023448N11548749WA0236702459000080015002
B1840225023509N11548539WA0238402476000043015000
B1840385023528N11548619WA0241002498000031015000
B1840545023478N11548679WA0246002547000028015000
B1841105023419N11548639WA0250202583000028015000
B1841265023438N11548528WA0254502631000025015000
B1841425023528N11548539WA0258702678000025015000
B1841585023448N11548669WA0263102723000025015000
B1842145023419N11548539WA0267302759000028015000
B1842305023528N11548559WA0272602811000025015000
B1842465023429N11548698WA0274402836000024015000
B1843025023559N11548528WA0276902869000021015000
B1843185023339N11548438WA0281202905000022015000
B1843345023419N11548649WA0282202913000024015000
B1843505023448N11548308WA0283802933000024015000
B1844065023478N11548459WA0282902931000027015000
B1844225023519N11547989WA0282202925000032015000
B1844385023469N11547489WA0280402902000032015000
B1844545023379N11546999WA0279602882000031015000
B1845105023188N11546709WA0280402900000028015000
B1845265022959N11546749WA0282902925000022015000
B1845425023089N11546729WA0283802942000023015000
B1845585022878N11546609WA0285802953000024015000
B1846145022718N11546669WA0285802961000020015000
B1846305022708N11546590WA0288302971000024015000
B1846465022768N11546718WA0289102988000024015000
B1847025022708N11546779WA0290002998000025015000
B1847185022918N11546629WA0290903007000026015000
B1847345023219N11546739WA0291803013000032015000
B1847505023549N11546819WA0289103001000033015000
B1848065023939N11546789WA0287302979000037015000
B1848225024338N11546749WA0284702941000036015000
B1848385024709N11546669WA0284702950000033015000
B1848545025068N11546718WA0286502955000034015000
B1849105025368N11546789WA0288302993000031015000
B1849265025659N11546929WA0290002998000031015000
B1849425025948N11546929WA0291803017000029015000
B1849585026238N11547079WA0290003009000029015000
B1850145026569N11547329WA0285802957000034015000
B1850305026909N11547538WA0284702949000031015000
B1850465027228N11547750WA0283802941000033015000
B1851025027538N11547869WA0283802946000031015000
B1851185027818N11548138WA0282202928000032015000
B1851345028109N11548359WA0278702890000030015000
B1851505028168N11548619WA0287302973000025015000
B1852065028268N11548568WA0294303042000023015000
B1852225028128N11548499WA0298903085000023015000
B1852385028388N11548419WA0296203054000030015000
B1852545028718N11548639WA0290903020000034015000
B1853105029049N11548910WA0289103005000032015000
B1853265029399N11549199WA0287302975000032015000
B1853425029718N11549529WA0287302971000035015000
B1853585030028N11549770WA0290003003000032015000
B1854145030368N11549979WA0288302985000033015000
B1854305030729N11550209WA0283802931000037015000
B1854465031109N11550279WA0282902924000035015000
B1855025031459N11550229WA0285802941000033015000
B1855185031409N11550198WA0290002992000028015000
B1855345031509N11550099WA0293503030000023015000
B1855505031499N11550349WA0295403055000025015000
B1856065031388N11550259WA0298903087000024015000
B1856225031509N11550539WA0297103074000027015000
B1856385031858N11550500WA0292703038000032015000
B1856545032239N11550479WA0289102999000034015000
B1857105032638N11550489WA0288302983000033015000
B1857265033028N11550588WA0286502957000033015000
B1857425033408N11550539WA0286502957000033015000
B1857585033699N11550500WA0289102996000028015000
B1858145034008N11550739WA0283802939000033015000
B1858305034339N11551018WA0282902926000033015000
B1858465034528N11551358WA0290002978000032015000
B1859025034589N11551209WA0293503024000025015000
B1859185034528N11551188WA0298003069000023015000
B1859345034798N11551329WA0297103075000030015000
B1859505035119N11551660WA0300703090000033015000
B1900065035358N11552048WA0294303054000033015000
B1900225035589N11552579WA0291803020000035015000
B1900385035738N11553099WA0297103072000031015000
B1900545035988N11553389WA0298003083000028015000
B1901105036298N11553678WA0290903017000033015000
B1901265036708N11553799WA0290902999000036015000
B1901425037039N11554059WA0288302987000033015000
B1901585037358N11554389WA0287302982000032015000
B1902145037649N11554668WA0292703011000030015000
B1902305037609N11554628WA0290903017000026015000
B1902465037878N11554699WA0297103053000025015000
B1903025038148N11554659WA0293503057000025015000
B1903185038499N11554639WA0294303040000031015000
B1903345038828N11554668WA0296203056000029015000
B1903505039099N11554979WA0294303043000030015000
B1904065039329N11555409WA0292703027000032015000
B1904225039539N11555899WA0288302997000033015000
B1904385039698N11556479WA0285802964000035015000
B1904545039789N11557139WA0282202914000038015000
B1905105039879N11557799WA0278702886000040015000
B1905265039948N11558479WA0275202853000039015000
B1905425039978N11559089WA0276002858000038015000
B1905585040038N11559459WA0282902944000028015000
B1906145039988N11559379WA0286502977000028015000
B1906305040168N11559429WA0292703027000022015000
B1906465040198N11559289WA0298003072000022015000
B1907025040068N11559329WA0304303131000022015000
B1907185040269N11559229WA0309503190000020015000
B1907345040649N11559229WA0305103144000035015000
B1907505041048N11559398WA0302503122000034015000
B1908065041429N11559599WA0301603113000036015000
B1908225041809N11559709WA0297103075000036015000
B1908385042199N11559729WA0298903074000038015000
B1908545042518N11559769WA0298903103000028015000
B1909105042889N11559998WA0295403045000033015000
B1909265043248N11600269WA0292703024000034015000
B1909425043548N11600598WA0295403051000031015000
B1909585043818N11600888WA0298903087000032015000
B1910145044129N11600949WA0298903085000025015000
B1910305044429N11601018WA0301603110000027015000
B1910465044699N11601249WA0298003084000027015000
B1911025044938N11601639WA0291803014000031015000
B1911185045138N11602119WA0289102993000032015000
B1911345045448N11602428WA0288302987000033015000
B1911505045679N11602719WA0293503032000030015000
B1912065045578N11602688WA0297103069000024015000
B1912225045599N11602549WA0298003073000023015000
B1912385045608N11602788WA0300703114000020015000
B1912545045859N11602908WA0295403071000023015000
B1913105046069N11603359WA0292703021000029015000
B1913265046329N11603669WA0294303043000031015000
B1913425046678N11603629WA0288302987000031015000
B1913585047028N11603569WA0289102980000031015000
B1914145047238N11603359WA0291803030000025015000
B1914305047269N11603569WA0292703037000026015000
B1914465047578N11603789WA0290903006000032015000
B1915025047789N11604269WA0288302983000033015000
B1915185047869N11604248WA0293503034000027015000
B1915345047898N11604588WA0298003078000025015000
B1915505048108N11604918WA0298903074000026015000
B1916065048408N11604928WA0298903098000025015000
B1916225048748N11604909WA0297103068000029015000
B1916385049119N11604829WA0293503032000033015000
B1916545049289N11604618WA0300703115000025015000
B1917105049318N11604638WA0304303143000023015000
B1917265049308N11604678WA0307903169000024015000
B1917425049278N11604768WA0308803195000026015000
B1917585049518N11605198WA0304303161000031015000
B1918145049828N11605639WA0300703113000033015000
B1918305050059N11606149WA0298903098000032015000
B1918465050338N11606629WA0298003074000034015000
B1919025050579N11607139WA0298003058000035015000
B1919185050718N11607638WA0296203064000034015000
B1919345050768N11608238WA0293503025000036015000
B1919505050919N11608448WA0302503120000022015000
B1920065050868N11608498WA0304303138000024015000
B1920225050848N11608469WA0305103148000024015000
B1920385051068N11608809WA0303403138000028015000
B1920545051328N11609228WA0299803102000033015000
B1921105051598N11609688WA0297103075000031015000
B1921265051829N11610229WA0293503036000034015000
B1921425052028N11610709WA0297103067000032015000
B1921585052178N11611189WA0296203050000030015000
B1922145052318N11611548WA0301603104000027015000
B1922305052278N11611489WA0304303143000026015000
B1922465052308N11611389WA0308803189000022015000
B1923025052368N11611328WA0313303229000024015000
B1923185052398N11611309WA0316903252000026015000
B1923345052549N11611498WA0316903277000027015000
B1923505052889N11611819WA0314303244000035015000
B1924065053138N11612249WA0311603226000031015000
B1924225053258N11612809WA0309503200000033015000
B1924385053358N11613358WA0308803184000035015000
B1924545053508N11613868WA0306003176000032015000
B1925105053698N11614319WA0308803191000031015000
B1925265054059N11614399WA0310603208000031015000
B1925425054428N11614548WA0305103156000032015000
B1925585054739N11614888WA0304303140000033015000
B1926145055089N11615099WA0301603119000033015000
B1926305055358N11615479WA0298003085000032015000
B1926465055599N11615938WA0298003084000032015000
B1927025055819N11616408WA0291803031000032015000
B1927185056039N11616859WA0298003069000029015000
B1927345056048N11616719WA0296203061000027015000
B1927505056058N11617159WA0296203069000025015000
B1928065056299N11617568WA0291803025000031015000
B1928225056518N11618049WA0290003005000033015000
B1928385056719N11618569WA0286502970000034015000
B1928545056968N11618999WA0287302985000032015000
B1929105057298N11619299WA0283802939000033015000
B1929265057659N11619479WA0282902906000035015000
B1929425057669N11619469WA0289102976000030015000
B1929585057608N11619278WA0290903000000024015000
B1930145057768N11619469WA0289102981000027015000
B1930305058128N11619488WA0288302985000028015000
B1930465058489N11619698WA0287302966000033015000
B1931025058798N11619979WA0285802963000030015000
B1931185059079N11620298WA0283802936000031015000
B1931345059228N11620799WA0280402893000033015000
B1931505059379N11621308WA0277802882000031015000
B1932065059509N11621869WA0276002846000032015000
B1932225059568N11622418WA0275202844000031015000
B1932385059568N11622928WA0275202841000030015000
B1932545059478N11623048WA0274402844000025015000
B1933105059588N11622649WA0272602832000023015000
B1933265059899N11622399WA0269902799000029015000
B1933425100259N11622638WA0261302717000034015000
B1933585100609N11623068WA0258702687000038015000
B1934145100869N11623528WA0259602686000035015000
B1934305101069N11623958WA0263102714000031015000
B1934465101009N11623849WA0258702678000030015000
B1935025101180N11624159WA0256202650000033015000
B1935185101569N11624149WA0255402653000033015000
B1935345101569N11624459WA0250202611000033015000
B1935505101189N11624358WA0248602577000036015000
B1936065100979N11623958WA0249402583000033015000
B1936225100830N11623509WA0246002555000033015000
B1936385100620N11623079WA0245202537000033015000
B1936545100339N11622768WA0241002496000038015000
B1937105059989N11622748WA0238402475000038015000
B1937265059698N11622718WA0241702503000031015000
B1937425059448N11622938WA0241002494000033015000
B1937585059458N11622869WA0243502514000027015000
B1938145059419N11622878WA0242702514000030015000
B1938305059368N11622878WA0248602561000033015000
B1938465059368N11622848WA0252702610000027015000
B1939025059408N11622798WA0256202639000029015000
B1939185059438N11622779WA0259602689000028015000
B1939345059458N11622779WA0263802719000028015000
B1939505059458N11622758WA0266502750000028015000
B1940065059469N11622739WA0269102791000027015000
B1940225059528N11622748WA0271702825000025015000
B1940385059519N11622829WA0273402836000024015000
B1940545059398N11622859WA0276902864000024015000
B1941105059478N11622628WA0277802867000025015000
B1941265059488N11622739WA0275202854000026015000
B1941425059438N11622309WA0271702824000030015000
B1941585059278N11621799WA0269102787000035015000
B1942145058978N11621478WA0266502773000035015000
B1942305058739N11621059WA0267302759000035015000
B1942465058728N11620799WA0266502773000033015000
B1943025058878N11620589WA0269902784000030015000
B1943185058728N11620738WA0269102765000031015000
B1943345058689N11621028WA0270902803000027015000
B1943505058609N11621009WA0272602819000027015000
B1944065058368N11621258WA0274402832000031015000
B1944225058468N11621229WA0270902800000028015000
B1944385058278N11621009WA0275202848000024015000
B1944545058259N11621009WA0276902863000029015000
B1945105058278N11620939WA0278702892000027015000
B1945265058349N11620939WA0282202906000026015000
B1945425058189N11620509WA0276902874000027015000
B1945585057988N11620018WA0273402846000033015000
B1946145057648N11619798WA0269902804000039015000
B1946305057268N11619658WA0269902788000040015000
B1946465057078N11619268WA0269902804000032015000
B1947025056858N11618938WA0267302767000029015000
B1947185056759N11618558WA0273402830000027015000
B1947345056838N11618498WA0275202851000024015000
B1947505056818N11618588WA0273402836000026015000
B1948065056708N11618118WA0270902801000033015000
B1948225056528N11617648WA0269902779000034015000
B1948385056318N11617279WA0266502762000033015000
B1948545055978N11616968WA0264702727000039015000
B1949105055729N11616878WA0271702804000027015000
B1949265055758N11616998WA0275202836000025015000
B1949425055819N11617038WA0278702863000027015000
B1949585055888N11617029WA0282202910000024015000
B1950145055928N11616958WA0284702946000025015000
B1950305055909N11616889WA0289102972000025015000
B1950465055878N11616979WA0290002999000023015000
B1951025056048N11616939WA0294303038000022015000
B1951185055859N11616838WA0296203035000026015000
B1951345055689N11616499WA0292703027000029015000
B1951505055498N11616048WA0290903002000034015000
B1952065055288N11616029WA0295403051000027015000
B1952225055278N11615829WA0298003060000024015000
B1952385055378N11615758WA0298903082000023015000
B1952545055358N11615769WA0298903079000028015000
B1953105055328N11615739WA0300703097000028015000
B1953265055299N11615559WA0303403135000025015000
B1953425055408N11615448WA0304303135000028015000
B1953585055068N11615288WA0293503048000034015000
B1954145054659N11615219WA0290903012000036015000
B1954305054238N11615169WA0289102990000035015000
B1954465053858N11615028WA0287302974000036015000
B1955025053518N11614909WA0286502972000034015000
B1955185053199N11614988WA0290002996000030015000
B1955345053029N11615318WA0290903006000027015000
B1955505052928N11615588WA0295403044000025015000
B1956065053058N11615609WA0298003073000024015000
B1956225052939N11615599WA0301603098000022015000
B1956385052948N11615779WA0304303140000022015000
B1956545052989N11615588WA0308803176000021015000
B1957105052868N11615639WA0307903180000023015000
B1957265052549N11615349WA0304303148000033015000
B1957425052198N11615009WA0300703115000033015000
B1957585051788N11614739WA0293503044000037015000
B1958145051368N11614428WA0293503032000042015000
B1958305051009N11614179WA0297103055000040015000
B1958465050868N11614229WA0305103145000027015000
B1959025050839N11614158WA0310603200000025015000
B1959185050829N11613998WA0316903255000025015000
B1959345050588N11613728WA0312403216000030015000
B1959505050369N11613369WA0314303250000029015000
B2000065050198N11612859WA0309503206000033015000
B2000225050069N11612268WA0305103169000034015000
B2000385049858N11611678WA0300703108000032015000
B2000545049719N11611038WA0300703106000034015000
B2001105049618N11610348WA0295403051000033015000
B2001265049528N11609648WA0293503034000035015000
B2001425049509N11608968WA0294303036000036015000
B2001585049539N11608429WA0301603105000029015000
B2002145049438N11607888WA0298003091000030015000
B2002305049178N11607378WA0293503037000036015000
B2002465048958N11606849WA0290903014000035015000
B2003025048738N11606398WA0293503018000036015000
B2003185048538N11606159WA0296203086000022015000
B2003345048308N11605658WA0287302978000037015000
B2003505048079N11605138WA0290002989000043015000
B2004065047818N11604989WA0296203061000028015000
B2004225047848N11604959WA0297103075000024015000
B2004385047578N11604899WA0298903104000024015000
B2004545047319N11604488WA0294303062000033015000
B2005105046978N11604089WA0289103003000038015000
B2005265046568N11603839WA0286502967000038015000
B2005425046268N11603478WA0290903014000034015000
B2005585045979N11603059WA0288302963000038015000
B2006145045698N11602828WA0290903009000032015000
B2006305045419N11602608WA0290003020000026015000
B2006465045228N11602178WA0293503047000028015000
B2007025044869N11602008WA0297103073000035015000
B2007185044658N11601568WA0293503043000032015000
B2007345044398N11601119WA0290903014000036015000
B2007505044148N11600768WA0295403071000031015000
B2008065043839N11600449WA0290003021000033015000
B2008225043458N11600389WA0292703013000035015000
B2008385043158N11600179WA0289103014000029015000
B2008545042759N11600038WA0283802951000036015000
B2009105042318N11600139WA0279602897000042015000
B2009265041908N11600259WA0282202905000040015000
B2009425041918N11600399WA0287302974000025015000
B2009585041649N11600238WA0288302980000031015000
B2010145041339N11559989WA0292703019000030015000
B2010305041389N11600068WA0290903023000027015000
B2010465041148N11559709WA0290003015000031015000
B2011025040779N11559549WA0287302967000035015000
B2011185040468N11559459WA0294303027000032015000
B2011345040529N11559319WA0294303033000028015000
B2011505040428N11559329WA0295403071000024015000
B2012065040378N11559249WA0300703114000026015000
B2012225040399N11559229WA0306003152000027015000
B2012385040359N11558959WA0308803190000023015000
B2012545040418N11558989WA0312403217000024015000
B2013105040108N11559019WA0310603203000032015000
B2013265039698N11559138WA0309503205000040015000
B2013425039248N11558949WA0306003161000035015000
B2013585038818N11558790WA0303403137000036015000
B2014145038388N11558609WA0301603118000033015000
B2014305037989N11558408WA0299803102000032015000
B2014465037588N11558219WA0297103076000032015000
B2015025037219N11558018WA0295403062000033015000
B2015185036858N11557789WA0291803032000033015000
B2015345036479N11557729WA0290003001000034015000
B2015505036118N11557709WA0293503023000037015000
B2016065035808N11557689WA0296203061000032015000
B2016225035459N11557469WA0290903011000036015000
B2016385035098N11557209WA0290002996000030015000
B2016545034798N11556818WA0286502963000031015000
B2017105034568N11556319WA0283802929000033015000
B2017265034278N11556289WA0290002986000030015000
B2017425034328N11556289WA0290002996000027015000
B2017585034188N11556348WA0293503035000024015000
B2018145034289N11556029WA0298003070000027015000
B2018305034348N11556088WA0300703097000026015000
B2018465034238N11555658WA0293503047000029015000
B2019025033959N11555079WA0286502973000041015000
B2019185033628N11554519WA0283802944000045015000
B2019345033248N11553959WA0276002854000051015000
B2019505032879N11553429WA0276002859000047015000
B2020065032569N11553129WA0282202919000034015000
B2020225032418N11552948WA0289102987000027015000
B2020385032388N11552948WA0294303034000025015000
B2020545032508N11553029WA0298003068000022015000
B2021105032548N11553120WA0300703122000021015000
B2021265032458N11553109WA0308803188000022015000
B2021425032428N11553049WA0312403226000023015000
B2021585032369N11552939WA0318703269000025015000
B2022145032298N11552820WA0318703288000028015000
B2022305031958N11552608WA0315103253000035015000
B2022465031679N11552249WA0318703267000034015000
B2023025031369N11552159WA0318703298000031015000
B2023185030979N11551909WA0316003263000035015000
B2023345030608N11551639WA0313303232000035015000
B2023505030249N11551379WA0314303235000034015000
B2024065029898N11551209WA0310603212000032015000
B2024225029498N11551129WA0308803193000036015000
B2024385029118N11550978WA0306003155000033015000
B2024545028728N11550969WA0303403130000033015000
B2025105028329N11550928WA0301603111000033015000
B2025265027948N11550899WA0300703103000032015000
B2025425027568N11550839WA0298903091000029015000
B2025585027218N11550859WA0298903087000033015000
B2026145026888N11550888WA0298903076000032015000
B2026305026678N11550709WA0299803104000025015000
B2026465026398N11550739WA0299803104000023015000
B2027025026148N11550519WA0296203076000030015000
B2027185025798N11550370WA0292703032000032015000
B2027345025418N11550309WA0289102993000033015000
B2027505025059N11550259WA0284702953000035015000
B2028065024768N11549959WA0286502964000032015000
B2028225024488N11549699WA0292703010000033015000
B2028385024249N11549598WA0296203052000023015000
B2028545024019N11549249WA0293503032000030015000
B2029105023769N11548789WA0290903002000034015000
B2029265023578N11548658WA0301603113000025015000
B2029425023519N11548579WA0304303141000027015000
B2029585023169N11548669WA0305103140000036015000
B2030145022779N11548539WA0298003087000037015000
B2030305022349N11548339WA0293503040000041015000
B2030465021929N11548289WA0292703028000040015000
B2031025021548N11548279WA0293503045000036015000
B2031185021189N11548398WA0291803023000033015000
B2031345020838N11548610WA0288302983000033015000
B2031505020558N11548819WA0290903007000030015000
B2032065020258N11548589WA0282902938000033015000
B2032225019899N11548209WA0276902868000041015000
B2032385019568N11547759WA0272602832000042015000
B2032545019238N11547299WA0271702797000043015000
B2033105018999N11546890WA0269902807000033015000
B2033265018668N11546799WA0275202842000031015000
B2033425018428N11546890WA0276902867000022015000
B2033585018108N11546869WA0273402833000031015000
B2034145017778N11546969WA0276002849000032015000
B2034305017499N11546999WA0281202902000024015000
B2034465017189N11546938WA0276002857000030015000
B2035025016849N11547049WA0274402847000033015000
B2035185016488N11547179WA0270902802000034015000
B2035345016119N11547278WA0267302764000035015000
B2035505015808N11547389WA0273402822000033015000
B2036065015829N11547339WA0277802862000028015000
B2036225015918N11547359WA0281202906000023015000
B2036385015658N11547299WA0276902872000030015000
B2036545015378N11547269WA0269902803000036015000
B2037105015429N11546768WA0277802883000027015000
B2037265015188N11546399WA0274402838000031015000
B2037425014908N11546009WA0269902806000034015000
B2037585014608N11545569WA0266502749000038015000
B2038145014239N11545388WA0267302755000037015000
B2038305013889N11545319WA0263802725000034015000
B2038465013518N11545269WA0259602679000038015000
B2039025013409N11545529WA0268302777000028015000
B2039185013358N11545218WA0268302781000026015000
B2039345013119N11545289WA0269102794000023015000
B2039505013249N11545218WA0263802731000029015000
B2040065013138N11544889WA0266502750000026015000
B2040225013199N11545109WA0269902793000022015000
B2040385012968N11545079WA0266502763000026015000
B2040545012758N11545339WA0266502750000026015000
B2041105012848N11545518WA0267302776000025015000
B2041265012668N11545529WA0269902790000023015000
B2041425012448N11545749WA0274402827000025015000
B2041585012599N11545889WA0279602883000023015000
B2042145012509N11545648WA0287302959000022015000
B2042305012469N11545908WA0290003001000020015000
B2042465012649N11545769WA0296203050000021015000
B2043025012448N11545730WA0301603107000022015000
B2043185012549N11546019WA0300703094000024015000
B2043345012668N11545809WA0300703094000027015000
B2043505012658N11545908WA0306903153000024015000
B2044065012628N11545648WA0308803195000021015000
B2044225012618N11545608WA0316003240000030015000
B2044385012718N11545759WA0320603294000024015000
B2044545012729N11545499WA0324103343000020015000
B2045105012418N11545430WA0319603315000034015000
B2045265012098N11545059WA0317903287000029015000
B2045425011798N11544669WA0315103259000030015000
B2045585011508N11544299WA0314303249000030015000
B2046145011198N11543989WA0312403224000031015000
B2046305010868N11543689WA0308803199000033015000
B2046465010558N11543368WA0307903185000032015000
B2047025010248N11542999WA0303403141000034015000
B2047185009948N11542649WA0302503134000030015000
B2047345009629N11542389WA0297103096000031015000
B2047505009258N11542199WA0296203058000033015000
B2048065008918N11542139WA0293503059000030015000
B2048225008578N11542329WA0292703037000029015000
B2048385008219N11542380WA0290903009000030015000
B2048545007879N11542289WA0290903014000032015000
B2049105007558N11542269WA0292703032000031015000
B2049265007269N11542419WA0292703040000028015000
B2049425006938N11542298WA0288302987000032015000
B2049585006618N11542059WA0288302984000033015000
B2050145006358N11542199WA0289103017000025015000
B2050305006008N11542168WA0286502962000032015000
B2050465005689N11542208WA0285802953000033015000
B2051025005469N11542579WA0290003001000033015000
B2051185005368N11542839WA0292703028000026015000
B2051345005328N11542779WA0294303042000024015000
B2051505005429N11542609WA0300703101000024015000
B2052065005478N11542638WA0302503117000024015000
B2052225005259N11542609WA0304303146000025015000
B2052385004898N11542598WA0295403050000038015000
B2052545004498N11542449WA0292703041000041015000
B2053105004089N11542239WA0290003002000039015000
B2053265003728N11541939WA0284702953000042015000
B2053425003518N11541549WA0294303048000034015000
B2053585003229N11541459WA0289102996000030015000
B2054145002898N11541308WA0288302994000032015000
B2054305002608N11540920WA0282902936000036015000
B2054465002178N11540838WA0276902881000042015000
B2055025001798N11540618WA0278702884000040015000
B2055185001568N11540188WA0276902862000036015000
B2055345001349N11539848WA0276002858000030015000
B2055505000999N11539729WA0271702831000038015000
B2056065000638N11539499WA0271702801000040015000
B2056225000349N11539200WA0269902798000034015000
B2056385000078N11538889WA0269102790000028015000
B2056544959769N11538589WA0266502761000029015000
B2057104959438N11538329WA0260602706000034015000
B2057264959129N11537918WA0256202658000036015000
B2057424958928N11537349WA0253502622000041015000
B2057584958798N11537058WA0263102722000031015000
B2058144958798N11537049WA0264702739000028015000
B2058304958869N11537029WA0269902786000025015000
B2058464958928N11537058WA0275202846000024015000
B2059024958949N11537098WA0281202906000028015000
B2059184958959N11537159WA0287302956000027015000
B2059344958919N11537209WA0290902997000027015000
B2059504958869N11537089WA0295403048000023015000
B2100064958979N11537119WA0300703101000023015000
B2100224958729N11537098WA0304303139000024015000
B2100384958389N11537098WA0298903096000035015000
B2100544958029N11536949WA0296203063000038015000
B2101104957678N11536628WA0288302996000038015000
B2101264957288N11536280WA0285802945000045015000
B2101424957019N11535959WA0297103055000034015000
B2101584957009N11536049WA0301603114000027015000
B2102144957009N11536049WA0306003161000024015000
B2102304956829N11536019WA0307903180000023015000
B2102464956518N11535759WA0303403130000035015000
B2103024956128N11535519WA0295403060000039015000
B2103184955669N11535420WA0293503039000044015000
B2103344955219N11535319WA0290002998000044015000
B2103504954919N11534990WA0298003077000037015000
B2104064954628N11534738WA0295403062000031015000
B2104224954309N11534449WA0295403041000033015000
B2104384954108N11534608WA0302503113000026015000
B2104544954089N11534569WA0306003150000025015000
B2105104954089N11534539WA0309503192000025015000
B2105264954039N11534438WA0310603221000028015000
B2105424953678N11534659WA0306903176000037015000
B2105584953298N11534849WA0303403139000036015000
B2106144952879N11534859WA0298903107000035015000
B2106304952449N11534969WA0296203073000040015000
B2106464952008N11535168WA0292703033000042015000
B2107024951599N11535409WA0291803029000041015000
B2107184951299N11535579WA0301603112000031015000
B2107344951058N11535768WA0300703099000025015000
B2107504950859N11536019WA0302503142000022015000
B2108064950499N11536019WA0293503047000029015000
B2108224950089N11535919WA0290003008000031015000
B2108384949679N11535839WA0287302968000033015000
B2108544949298N11535949WA0285802959000033015000
B2109104948949N11536039WA0285802960000030015000
B2109264948589N11536159WA0282202925000030015000
B2109424948199N11536309WA0276902876000032015000
B2109584947838N11536498WA0280402889000037015000
B2110144947549N11536739WA0281202894000036015000
B2110304947278N11536959WA0280402914000030015000
B2110464946889N11536919WA0275202856000032015000
B2111024946508N11536849WA0273402830000035015000
B2111184946118N11536789WA0271702811000033015000
B2111344945769N11536569WA0269902794000030015000
B2111504945409N11536519WA0267302769000033015000
B2112064945119N11536838WA0267302776000033015000
B2112224944759N11536949WA0263802730000032015000
B2112384944429N11537010WA0267302758000030015000
B2112544944179N11537179WA0266502756000026015000
B2113104943939N11537409WA0268302770000028015000
B2113264944029N11537488WA0269902799000021015000
B2113424944009N11537619WA0274402835000023015000
B2113584943899N11537559WA0276002851000022015000
B2114144944009N11537459WA0276902858000023015000
B2114304943989N11537539WA0276902867000023015000
B2114464943899N11537179WA0276902880000026015000
B2115024943679N11536789WA0274402844000031015000
B2115184943449N11536479WA0276002861000027015000
B2115344943239N11536319WA0281202905000027015000
B2115504943359N11536169WA0282202904000027015000
B2116064943359N11536159WA0284702947000025015000
B2116224943368N11536179WA0289102985000024015000
B2116384943309N11536209WA0293503026000022015000
B2116544943239N11536068WA0296203050000022015000
B2117104942929N11535969WA0290903021000030015000
B2117264942598N11535799WA0289102983000032015000
B2117424942269N11535629WA0287302974000032015000
B2117584941939N11535449WA0286502965000033015000
B2118144941639N11535239WA0285802961000029015000
B2118304941359N11534919WA0287302968000032015000
B2118464941048N11534789WA0293503012000032015000
B2119024940708N11534749WA0291803021000031015000
B2119184940278N11534629WA0286502966000039015000
B2119344939829N11534619WA0284702941000037015000
B2119504939409N11534648WA0283802938000036015000
B2120064939059N11534709WA0288302983000033015000
B2120224938669N11534679WA0288302981000041015000
B2120384938249N11534599WA0287302976000038015000
B2120544937989N11534159WA0284702945000036015000
B2121104937849N11533629WA0285802956000030015000
B2121264937689N11533119WA0282202923000032015000
B2121424937528N11532588WA0277802878000034015000
B2121584937358N11532109WA0277802882000031015000
B2122144937219N11531629WA0278702872000034015000
B2122304937069N11531239WA0282202920000027015000
B2122464936968N11530759WA0281202911000032015000
B2123024936708N11530429WA0281202910000031015000
B2123184936429N11530119WA0284702931000032015000
B2123344936169N11529809WA0281202919000030015000
B2123504935949N11529359WA0280402901000032015000
B2124064935719N11528848WA0276902872000035015000
B2124224935489N11528329WA0278702882000032015000
B2124384935319N11528219WA0285802966000025015000
B2124544935369N11527899WA0282902957000027015000
B2125104935139N11527379WA0277802871000035015000
B2125264934919N11526870WA0276902871000035015000
B2125424934698N11526409WA0277802873000033015000
B2125584934489N11525979WA0278702888000031015000
B2126144934159N11525859WA0280402888000034015000
B2126304934048N11525968WA0286502964000023015000
B2126464934039N11525888WA0290903000000024015000
B2127024934079N11525789WA0295403047000025015000
B2127184934159N11525758WA0298903083000025015000
B2127344934178N11525789WA0302503122000024015000
B2127504933939N11525689WA0305103165000027015000
B2128064933559N11525679WA0303403142000030015000
B2128224933148N11525639WA0302503132000039015000
B2128384932739N11525479WA0311603197000039015000
B2128544932399N11525328WA0306903169000033015000
B2129104932028N11525119WA0306903169000034015000
B2129264931789N11524779WA0315103251000027015000
B2129424931549N11524449WA0316903274000026015000
B2129584931269N11524089WA0311603221000028015000
B2130144930939N11523759WA0309503209000031015000
B2130304930589N11523459WA0307903165000033015000
B2130464930259N11523178WA0299803118000032015000
B2131024929909N11522939WA0299803101000030015000
B2131184929538N11522759WA0295403058000028015000
B2131344929179N11522649WA0296203074000027015000
B2131504928808N11522609WA0294303056000027015000
B2132064928459N11522569WA0291803020000028015000
B2132224928078N11522519WA0289103001000030015000
B2132384927709N11522459WA0287302982000030015000
B2132544927359N11522429WA0286502969000031015000
B2133104927019N11522529WA0282902916000032015000
B2133264926739N11522609WA0285802947000026015000
B2133424926828N11522689WA0285802956000025015000
B2133584926649N11522499WA0289102974000049015000
B2134144926589N11522639WA0290902996000027015000
B2134304926569N11522679WA0293503028000025015000
B2134464926528N11522660WA0298903069000023015000
B2135024926589N11522578WA0303403111000022015000
B2135184926658N11522618WA0305103152000021015000
B2135344926589N11522729WA0306003155000023015000
B2135504926569N11522529WA0308803196000020015000
B2136064926329N11522769WA0307903183000025015000
B2136224925949N11522819WA0298903092000030015000
B2136384925579N11522859WA0298003075000030015000
B2136544925189N11522859WA0295403053000032015000
B2137104924839N11522660WA0291803018000035015000
B2137264924519N11522529WA0294303042000032015000
B2137424924168N11522589WA0290002994000032015000
B2137584923849N11522859WA0288302992000031015000
B2138144923509N11523099WA0287302974000031015000
B2138304923308N11522799WA0287302966000032015000
B2138464923138N11522379WA0283802938000031015000
B2139024922999N11521939WA0283802925000031015000
B2139184922918N11521489WA0286502943000028015000
B2139344923019N11521669WA0290002986000023015000
B2139504922869N11521559WA0290903001000021015000
B2140064922779N11521299WA0290903010000022015000
B2140224922649N11520849WA0282902941000030015000
B2140384922589N11520249WA0282202912000038015000
B2140544922469N11519689WA0279602887000035015000
B2141104922329N11519219WA0278702888000029015000
B2141264922219N11518719WA0276902873000029015000
B2141424922099N11518169WA0269102788000038015000
B2141584921938N11517619WA0271702792000042015000
B2142144921839N11517129WA0268302759000037015000
B2142304921799N11516619WA0267302767000034015000
B2142464921539N11516319WA0266502742000037015000
B2143024921319N11516008WA0263802718000036015000
B2143184921089N11515788WA0262202715000032015000
B2143344920809N11515899WA0264702731000030015000
B2143504920598N11515569WA0260602690000032015000
B2144064920348N11515228WA0258702679000033015000
B2144224920069N11514869WA0253502636000034015000
B2144384919918N11514509WA0263102705000036015000
B2144544919889N11514749WA0263802717000025015000
B2145104919949N11514679WA0267302753000022015000
B2145264919839N11514779WA0269902786000022015000
B2145424920009N11514809WA0273402818000020015000
B2145584919868N11515039WA0274402829000020015000
B2146144919709N11514789WA0275202838000023015000
B2146304919759N11514888WA0272602819000024015000
B2146464919669N11514619WA0278702863000026015000
B2147024919698N11514609WA0282202886000024015000
B2147184919729N11514599WA0284702921000027015000
B2147344919739N11514689WA0288302964000024015000
B2147504919658N11514739WA0290903003000022015000
B2148064919739N11514619WA0296203062000020015000
B2148224919769N11514670WA0300703091000023015000
B2148384919839N11514789WA0306003134000025015000
B2148544919729N11514789WA0308803190000020015000
B2149104919828N11514679WA0311603219000020015000
B2149264919568N11514699WA0316003244000022015000
B2149424919309N11514519WA0316903252000025015000
B2149584919058N11514339WA0321503302000024015000
B2150144918758N11514229WA0314303247000029015000
B2150304918458N11513909WA0311603219000030015000
B2150464918089N11513688WA0309503185000036015000
B2151024917749N11513479WA0305103150000035015000
B2151184917428N11513159WA0300703103000034015000
B2151344917118N11512969WA0303403124000031015000
B2151504916868N11512679WA0297103073000032015000
B2152064916659N11512159WA0290903008000033015000
B2152224916469N11511659WA0290903014000031015000
B2152384916229N11511190WA0287302960000036015000
B2152544915918N11510819WA0283802930000033015000
B2153104915729N11510339WA0282902924000030015000
B2153264915569N11509849WA0279602894000030015000
B2153424915379N11509339WA0278702879000030015000
B2153584915159N11508899WA0276902870000026015000
B2154144914909N11508469WA0275202850000026015000
B2154304914649N11508058WA0274402829000030015000
B2154464914399N11507659WA0271702812000032015000
B2155024914139N11507269WA0269902787000032015000
B2155184913909N11506919WA0269102784000034015000
B2155344913659N11506579WA0265702733000038015000
B2155504913349N11506298WA0263802724000035015000
B2156064913218N11505950WA0266502775000028015000
B2156224913029N11506199WA0267302767000027015000
B2156384913218N11506168WA0269102769000024015000
B2156544913239N11506329WA0269902779000025015000
B2157104913179N11505979WA0269902790000024015000
B2157264913049N11505549WA0271702798000033015000
B2157424912839N11505269WA0272602805000025015000
B2157584912599N11505079WA0272602826000028015000
B2158144912339N11504699WA0269902804000033015000
B2158304912049N11504278WA0268302766000036015000
B2158464911909N11504209WA0275202852000027015000
B2159024911919N11503959WA0277802864000025015000
B2159184911779N11504109WA0278702881000022015000
B2159344911859N11503809WA0277802865000028015000
B2159504911619N11503789WA0276002846000028015000
B2200064911339N11503999WA0271702807000033015000
B2200224910999N11504029WA0268302771000030015000
B2200384910649N11504069WA0266502752000031015000
B2200544910338N11504018WA0267302761000030015000
B2201104910149N11504139WA0270902801000027015000
B2201264910179N11504089WA0274402828000025015000
B2201424910038N11504299WA0275202841000022015000
B2201584910099N11503930WA0277802865000022015000
B2202144910199N11503739WA0280402903000021015000
B2202304910118N11503630WA0282902937000023015000
B2202464910139N11503699WA0286502944000021015000
B2203024910208N11503729WA0290002994000023015000
B2203184910139N11503539WA0292703030000021015000
B2203344910259N11503809WA0293503039000020015000
B2203504910338N11503899WA0295403040000025015000
B2204064910259N11503758WA0297103059000024015000
B2204224910288N11503669WA0302503105000026015000
B2204384910359N11503548WA0304303138000023015000
B2204544910118N11503509WA0298003087000025015000
B2205104909799N11503328WA0294303046000032015000
B2205264909439N11503229WA0291803018000032015000
B2205424909059N11503248WA0290903002000033015000
B2205584908729N11503328WA0290903018000030015000
B2206144908409N11503309WA0288302985000033015000
B2206304908139N11503649WA0287302965000034015000
B2206464907928N11503859WA0291803013000023015000
B2207024908069N11503869WA0294303045000022015000
B2207184907869N11504119WA0290003005000025015000
B2207344907549N11504089WA0285802962000031015000
B2207504907219N11503848WA0283802934000034015000
B2208064906938N11503489WA0283802936000033015000
B2208224906688N11503229WA0290902986000028015000
B2208384906739N11503158WA0293503019000025015000
B2208544906819N11503189WA0296203052000024015000
B2209104906549N11503019WA0291803014000032015000
B2209264906168N11502929WA0289102989000033015000
B2209424905789N11502849WA0289102984000032015000
B2209584905449N11502839WA0285802954000033015000
B2210144905079N11502749WA0280402897000036015000
B2210304904719N11502470WA0278702881000034015000
B2210464904448N11502149WA0280402892000033015000
B2211024904389N11502029WA0285802954000027015000
B2211184904429N11501998WA0293503019000025015000
B2211344904459N11501969WA0299803100000024015000
B2211504904278N11501658WA0299803091000040015000
B2212064903909N11501509WA0305103140000034015000
B2212224903559N11501339WA0299803097000032015000
B2212384903208N11501268WA0298003087000030015000
B2212544902849N11501209WA0295403052000030015000
B2213104902509N11501109WA0293503050000029015000
B2213264902149N11501228WA0293503021000031015000
B2213424901839N11501259WA0291803014000030015000
B2213584901488N11501329WA0289102977000028015000
B2214144901199N11501389WA0289102985000028015000
B2214304900888N11501349WA0282902931000030015000
B2214464900578N11501129WA0282902921000031015000
B2215024900278N11500939WA0281202908000030015000
B2215184859950N11501029WA0279602892000030015000
B2215344859879N11501358WA0276902874000026015000
B2215504900198N11501568WA0275202841000030015000
B2216064900498N11501849WA0272602813000029015000
B2216224900798N11501989WA0269902794000027015000
B2216384901149N11502049WA0266502754000028015000
B2216544901469N11502159WA0268302761000028015000
B2217104901749N11502119WA0266502768000025015000
B2217264901989N11501939WA0269902784000029015000
B2217424901969N11502119WA0270902798000021015000
B2217584901879N11502079WA0268302782000023015000
B2218144902048N11502079WA0270902808000022015000
B2218304901989N11502349WA0272602811000021015000
B2218464902229N11502319WA0267302773000024015000
B2219024902419N11501989WA0269902793000025015000
B2219184902709N11502139WA0267302775000027015000
B2219344902959N11501889WA0271702797000027015000
B2219504902929N11502079WA0271702807000024015000
B2220064903179N11502040WA0272602829000020015000
B2220224903439N11501759WA0267302772000028015000
B2220384903559N11502149WA0266502742000030015000
B2220544903739N11502428WA0265702746000032015000
B2221104903879N11502040WA0266502745000028015000
B2221264903919N11501619WA0269102790000024015000
B2221424903899N11501919WA0265702744000030015000
B2221584904049N11502258WA0269902798000027015000
B2222144904018N11502329WA0274402840000025015000
B2222304904039N11502269WA0276902870000026015000
B2222464904029N11502298WA0282202909000025015000
B2223024903959N11502219WA0287302972000022015000
B2223184903978N11502099WA0292703004000025015000
B2223344904009N11502049WA0297103044000025015000
B2223504903989N11502249WA0299803099000028015000
B2224064904399N11502319WA0297103072000040015000
B2224224904859N11502459WA0296203060000043015000
B2224384905308N11502569WA0296203056000039015000
B2224544905729N11502558WA0296203055000038015000
B2225104906109N11502598WA0295403056000032015000
B2225264906468N11502509WA0295403056000029015000
B2225424906808N11502369WA0293503032000030015000
B2225584907149N11502569WA0290003003000029015000
B2226144907429N11502939WA0288302986000029015000
B2226304907679N11503279WA0290902996000028015000
B2226464907968N11503079WA0288302982000030015000
B2227024908259N11503139WA0294303018000029015000
B2227184908249N11502979WA0296203067000022015000
B2227344908259N11503248WA0298903080000022015000
B2227504908519N11503269WA0298903081000025015000
B2228064908799N11503500WA0294303043000028015000
B2228224909159N11503689WA0290903005000030015000
B2228384909409N11504039WA0294303032000029015000
B2228544909669N11504058WA0299803078000025015000
B2229104909608N11504069WA0308803174000022015000
B2229264909988N11504099WA0302503122000041015000
B2229424910468N11504159WA0302503114000044015000
B2229584910879N11504230WA0302503122000040015000
B2230144911289N11504309WA0298903094000038015000
B2230304911589N11504649WA0300703101000030015000
B2230464911819N11505039WA0302503120000031015000
B2231024912129N11504979WA0301603118000028015000
B2231184912429N11505090WA0300703099000027015000
B2231344912649N11505409WA0299803096000027015000
B2231504912908N11505619WA0297103076000026015000
B2232064913199N11505879WA0296203061000025015000
B2232224913419N11506168WA0295403064000025015000
B2232384913709N11506399WA0294303041000027015000
B2232544914009N11506589WA0293503028000027015000
B2233104914259N11506829WA0291803022000027015000
B2233264914529N11507089WA0290003007000025015000
B2233424914829N11507269WA0288302982000027015000
B2233584915119N11507489WA0284702940000026015000
B2234144915389N11507779WA0282902931000027015000
B2234304915658N11508098WA0282202913000028015000
B2234464915878N11508429WA0280402913000024015000
B2235024916109N11508769WA0277802886000024015000
B2235184916339N11509099WA0276002853000028015000
B2235344916559N11509439WA0276902862000027015000
B2235504916769N11509759WA0274402843000027015000
B2236064916989N11510109WA0271702817000025015000
B2236224917129N11510449WA0275202858000040015000
B2236384917279N11510409WA0276902871000021015000
B2236544917179N11510619WA0277802871000020015000
B2237104917359N11510548WA0278702882000017015000
B2237264917539N11510819WA0276002862000023015000
B2237424917548N11511278WA0272602821000025015000
B2237584917799N11511429WA0270902806000029015000
B2238144918068N11511429WA0271702817000028015000
B2238304917999N11511199WA0272602823000025015000
B2238464918059N11511389WA0274402829000024015000
B2239024917898N11511320WA0274402846000020015000
B2239184918009N11511569WA0275202844000022015000
B2239344918019N11511309WA0274402849000020015000
B2239504917768N11511339WA0273402842000019015000
B2240064917909N11511609WA0269902789000025015000
B2240224918179N11511429WA0269902799000028015000
B2240384918169N11511079WA0273402821000028015000
B2240544918209N11511309WA0268302778000027015000
B2241104918529N11511238WA0270902782000031015000
B2241264918498N11511249WA0276002840000024015000
B2241424918549N11511339WA0283802926000021015000
B2241584918659N11511249WA0290002995000021015000
B2242144918628N11511159WA0295403042000021015000
B2242304918729N11511439WA0301603108000019015000
B2242464918628N11511289WA0306903166000020015000
B2243024918639N11511519WA0311603212000021015000
B2243184918668N11511278WA0317903276000020015000
B2243344918628N11511569WA0321503308000022015000
B2243504918679N11511379WA0326903370000020015000
B2244064918859N11511739WA0327803384000021015000
B2244224919169N11511920WA0327803380000025015000
B2244384919539N11512129WA0326903380000029015000
B2244544919899N11512409WA0325103358000031015000
B2245104920139N11512849WA0322303332000030015000
B2245264920359N11513289WA0321503326000029015000
B2245424920549N11513699WA0318703295000028015000
B2245584920869N11513858WA0316903268000031015000
B2246144921208N11513969WA0312403238000028015000
B2246304921539N11514169WA0314303246000025015000
B2246464921769N11514509WA0313303242000025015000
B2247024921989N11514869WA0313303234000024015000
B2247184922199N11515239WA0309503216000024015000
B2247344922399N11515679WA0306003172000030015000
B2247504922569N11516159WA0304303149000028015000
B2248064922739N11516579WA0304303145000026015000
B2248224922909N11516959WA0304303145000026015000
B2248384923098N11517329WA0299803113000026015000
B2248544923409N11517559WA0296203071000028015000
B2249104923639N11517989WA0295403050000029015000
B2249264923879N11518379WA0290003013000028015000
B2249424924099N11518809WA0289102997000033015000
B2249584924399N11519119WA0286502953000036015000
B2250144924609N11519119WA0291803022000024015000
B2250304924609N11519159WA0293503038000023015000
B2250464924589N11519228WA0297103074000022015000
B2251024924539N11519279WA0301603113000021015000
B2251184924479N11519249WA0304303142000022015000
B2251344924479N11519159WA0307903171000022015000
B2251504924539N11519169WA0310603207000022015000
B2252064924529N11519329WA0314303237000020015000
B2252224924428N11519219WA0316903266000021015000
B2252384924539N11519199WA0317903283000022015000
B2252544924479N11519329WA0319603298000020015000
B2253104924399N11519138WA0320603319000022015000
B2253264924439N11519409WA0324103336000022015000
B2253424924699N11519599WA0321503316000025015000
B2253584924929N11519979WA0319603302000027015000
B2254144925149N11520349WA0315103266000028015000
B2254304925439N11520579WA0316003260000030015000
B2254464925779N11520770WA0309503201000034015000
B2255024926009N11521209WA0309503203000032015000
B2255184926239N11521609WA0308803190000028015000
B2255344926469N11522009WA0306903175000028015000
B2255504926689N11522389WA0306903170000031015000
B2256064926939N11522708WA0309503198000029015000
B2256224927258N11522809WA0302503131000033015000
B2256384927599N11522918WA0304303137000031015000
B2256544927859N11522739WA0310603198000026015000
B2257104927778N11522779WA0316003252000024015000
B2257264927859N11522959WA0320603304000020015000
B2257424927818N11522719WA0326003355000019015000
B2257584928049N11522909WA0330503396000022015000
B2258144928378N11523249WA0325103362000036015000
B2258304928718N11523679WA0325103365000038015000
B2258464929198N11523809WA0320603313000041015000
B2259024929628N11523889WA0321503323000036015000
B2259184930039N11523959WA0318703302000036015000
B2259344930459N11523959WA0316903278000037015000
B2259504930788N11524269WA0322303315000036015000
B2300064931099N11524479WA0322303320000028015000
B2300224931489N11524428WA0323203342000032015000
B2300384931929N11524619WA0326003358000038015000
B2300544932309N11524808WA0329703386000038015000
B2301104932669N11524938WA0321503319000032015000
B2301264933049N11525139WA0318703288000030015000
B2301424933429N11525349WA0316903277000030015000
B2301584933779N11525619WA0316003267000032015000
B2302144934069N11525919WA0315103263000030015000
B2302304934419N11526140WA0310603211000027015000
B2302464934689N11526549WA0308803197000028015000
B2303024934998N11526839WA0307903186000031015000
B2303184935309N11527159WA0305103153000029015000
B2303344935598N11527529WA0300703121000030015000
B2303504935829N11528009WA0301603114000029015000
B2304064936049N11528418WA0300703111000032015000
B2304224936238N11528848WA0298903102000028015000
B2304384936439N11529278WA0299803099000027015000
B2304544936599N11529699WA0297103081000028015000
B2305104936859N11530109WA0292703036000029015000
B2305264937049N11530589WA0294303051000030015000
B2305424937129N11531038WA0298003075000025015000
B2305584937259N11531409WA0297103091000020015000
B2306144937559N11531749WA0290003009000030015000
B2306304937788N11532179WA0298003067000029015000
B2306464937899N11532169WA0302503099000025015000
B2307024937899N11532328WA0304303132000023015000
B2307184937849N11532198WA0306903172000021015000
B2307344937929N11532609WA0307903190000022015000
B2307504938099N11533100WA0303403145000027015000
B2308064938339N11533530WA0304303143000029015000
B2308224938558N11533949WA0299803112000028015000
B2308384938908N11534209WA0297103071000033015000
B2308544939149N11534509WA0305103159000024015000
B2309104939349N11534879WA0297103097000030015000
B2309264939759N11534948WA0290903019000033015000
B2309424940188N11535019WA0289102994000037015000
B2309584940599N11535099WA0285802958000035015000
B2310144940989N11535208WA0288302970000032015000
B2310304941239N11535168WA0296203053000020015000
B2310464941539N11535129WA0294303053000026015000
B2311024941859N11535338WA0288302989000031015000
B2311184942239N11535420WA0290903013000031015000
B2311344942558N11535369WA0297103061000025015000
B2311504942829N11535529WA0298003066000024015000
B2312064942879N11535409WA0301603103000025015000
B2312224942938N11535479WA0305103144000024015000
B2312384942969N11535459WA0311603200000024015000
B2312544942979N11535519WA0318703280000022015000
B2313104942929N11535449WA0325103346000020015000
B2313264943219N11535699WA0322303319000035015000
B2313424943588N11536009WA0324103341000038015000
B2313584944089N11536079WA0323203334000040015000
B2314144944589N11536089WA0321503322000040015000
B2314304945059N11536299WA0320603315000039015000
B2314464945509N11536469WA0322303301000040015000
B2315024945859N11536599WA0324103351000032015000
B2315184946239N11536729WA0319603304000033015000
B2315344946579N11536829WA0326003366000025015000
B2315504946898N11536649WA0322303329000027015000
B2316064947269N11536439WA0318703291000031015000
B2316224947599N11536189WA0316003269000027015000
B2316384947949N11535898WA0313303237000032015000
B2316544948299N11535659WA0312403230000028015000
B2317104948658N11535489WA0309503208000030015000
B2317264949029N11535349WA0309503201000030015000
B2317424949369N11535168WA0307903200000028015000
B2317584949699N11534929WA0306003166000029015000
B2318144950019N11534619WA0307903169000030015000
B2318304950328N11534549WA0311603216000028015000
B2318464950279N11534229WA0316003257000022015000
B2319024950349N11534209WA0321503314000020015000
B2319184950269N11534329WA0323203334000022015000
B2319344950439N11534579WA0319603317000024015000
B2319504950789N11534499WA0316003259000031015000
B2320064951089N11534329WA0316003281000028015000
B2320224951429N11534529WA0308803198000032015000
B2320384951759N11534789WA0310603210000028015000
B2320544952069N11535059WA0306903188000029015000
B2321104952409N11535139WA0304303149000030015000
B2321264952778N11534929WA0299803115000030015000
B2321424953119N11534849WA0298903106000031015000
B2321584953508N11534859WA0292703040000036015000
B2322144953929N11534679WA0289102992000036015000
B2322304954269N11534589WA0292703047000031015000
B2322464954628N11534509WA0294303044000034015000
B2323024954949N11534478WA0290903017000030015000
B2323184955268N11534709WA0287302978000030015000
B2323344955618N11534799WA0290903000000032015000
B2323504955599N11534818WA0294303041000025015000
B2324064955719N11534769WA0297103078000019015000
B2324224955729N11534669WA0301603115000021015000
B2324384955709N11534549WA0306003157000022015000
B2324544955639N11534529WA0309503190000020015000
B2325104955649N11534569WA0315103248000023015000
B2325264955719N11534539WA0320603301000021015000
B2325424955709N11534339WA0325103351000020015000
B2325584955609N11534359WA0329703392000020015000
B2326144955669N11534409WA0333203434000020015000
B2326304955709N11534260WA0338003478000019015000
B2326464955559N11534218WA0340903498000019015000
B2327024955649N11534289WA0345403560000020015000
B2327184955618N11534048WA0348203586000019015000
B2327344955859N11534308WA0348203590000028015000
B2327504956079N11534639WA0344603542000029015000
B2328064956339N11534939WA0343603545000028015000
B2328224956639N11535219WA0341603527000030015000
B2328384956959N11535439WA0340903522000032015000
B2328544957269N11535619WA0340903523000029015000
B2329104957599N11535789WA0336003479000030015000
B2329264957938N11535869WA0335203463000030015000
B2329424958259N11535898WA0334303454000028015000
B2329584958589N11535909WA0330503424000030015000
B2330144958928N11535808WA0330503420000032015000
B2330304959268N11535919WA0326003365000032015000
B2330464959519N11536198WA0327803386000026015000
B2331024959849N11536269WA0323203339000030015000
B2331185000168N11536389WA0322303331000031015000
B2331345000428N11536668WA0323203349000028015000
B2331505000659N11536959WA0323203338000027015000
B2332065000888N11537239WA0322303330000027015000
B2332225001118N11537519WA0322303328000030015000
B2332385001328N11537740WA0326003367000025015000
B2332545001498N11537909WA0329703395000019015000
B2333105001658N11538079WA0331503425000016015000
B2333265001838N11538319WA0328803403000022015000
B2333425002058N11538659WA0325103366000025015000
B2333585002329N11538959WA0319603307000031015000
B2334145002549N11539399WA0314303258000030015000
B2334305002769N11539859WA0311603225000033015000
B2334465003038N11540249WA0315103241000035015000
B2335025003279N11540559WA0309503203000031015000
B2335185003579N11540849WA0305103163000032015000
B2335345003868N11541199WA0300703105000036015000
B2335505004168N11541589WA0297103080000035015000
B2336065004158N11541650WA0305103145000024015000
B2336225004278N11541908WA0306903175000024015000
B2336385004598N11542139WA0303403129000029015000
B2336545004878N11542380WA0305103146000028015000
B2337105005169N11542439WA0306003160000030015000
B2337265005488N11542489WA0302503131000032015000
B2337425005819N11542529WA0301603116000031015000
B2337585006178N11542549WA0297103069000032015000
B2338145006558N11542549WA0291803030000032015000
B2338305006898N11542519WA0297103052000033015000
B2338465007108N11542338WA0297103076000022015000
B2339025007409N11542409WA0298903076000029015000
B2339185007368N11542349WA0298903087000023015000
B2339345007668N11542250WA0295403078000024015000
B2339505008039N11542468WA0289102981000038015000
B2340065008418N11542689WA0286502958000038015000
B2340225008748N11542839WA0288302987000031015000
B2340385009048N11543079WA0285802963000033015000
B2340545009438N11543039WA0277802883000038015000
B2341105009828N11543009WA0278702872000040015000
B2341265010149N11542938WA0279602885000029015000
B2341425010369N11542719WA0282202926000021015000
B2341585010428N11542749WA0286502947000025015000
B2342145010489N11542728WA0292703012000024015000
B2342305010568N11542659WA0296203057000022015000
B2342465010499N11542499WA0300703105000019015000
B2343025010528N11542669WA0304303128000022015000
B2343185010499N11542428WA0306903171000020015000
B2343345010489N11542659WA0311603206000021015000
B2343505010478N11542409WA0314303237000019015000
B2344065010518N11542529WA0318703284000022015000
B2344225010688N11542380WA0321503312000020015000
B2344385010579N11542649WA0317903292000023015000
B2344545010378N11542369WA0321503321000024015000
B2345105010518N11542279WA0324103341000021015000
B2345265010489N11542049WA0327803389000019015000
B2345425010478N11542309WA0330503402000020015000
B2345585010478N11542029WA0332403419000021015000
B2346145010619N11542269WA0334303442000022015000
B2346305010768N11542629WA0332403420000029015000
B2346465011009N11542989WA0328803394000029015000
B2347025011269N11543349WA0325103356000030015000
B2347185011538N11543679WA0324103348000031015000
B2347345011838N11543989WA0320603305000033015000
B2347505012158N11544259WA0319603282000034015000
B2348065012498N11544379WA0316903274000032015000
B2348225012848N11544270WA0316903268000032015000
B2348385013159N11544018WA0318703283000031015000
B2348545013468N11543829WA0316903264000031015000
B2349105013488N11543639WA0320603307000025015000
B2349265013578N11543519WA0324103344000022015000
B2349425013468N11543659WA0326003365000019015000
B2349585013719N11543758WA0323203348000022015000
B2350145014028N11544018WA0319603302000028015000
B2350305014348N11544318WA0315103262000033015000
B2350465014688N11544509WA0314303249000032015000
B2351025015018N11544739WA0312403231000030015000
B2351185015309N11545039WA0309503202000031015000
B2351345015599N11545309WA0309503197000032015000
B2351505015918N11545569WA0307903182000034015000
B2352065016238N11545839WA0306003165000031015000
B2352225016518N11546118WA0306003168000029015000
B2352385016868N11546179WA0305103142000032015000
B2352545017218N11546118WA0302503135000030015000
B2353105017548N11546239WA0303403140000030015000
B2353265017889N11546319WA0300703108000034015000
B2353425018189N11546539WA0295403063000032015000
B2353585018508N11546759WA0298903081000030015000
B2354145018869N11546678WA0293503038000035015000
B2354305019228N11546729WA0293503044000030015000
B2354465019559N11546929WA0291803016000031015000
B2355025019909N11546969WA0291803022000032015000
B2355185020268N11546919WA0290903005000032015000
B2355345020568N11546819WA0293503032000027015000
B2355505020878N11546808WA0290903016000028015000
B2356065021189N11546949WA0290002998000028015000
B2356225021489N11547068WA0290903002000028015000
B2356385021718N11547278WA0294303037000025015000
B2356545022009N11547139WA0288302982000029015000
B2357105022318N11546869WA0285802955000029015000
B2357265022638N11546689WA0284702945000032015000
B2357425022959N11546508WA0283802941000031015000
B2357585023259N11546678WA0282202919000032015000
B2358145023528N11546848WA0282202908000029015000
B2358305023729N11546919WA0282202942000023015000
B2358465023528N11546799WA0284702949000023015000
B2359025023648N11547089WA0286502958000028015000
B2359185023878N11546909WA0285802940000027015000
B2359345024128N11546659WA0280402910000030015000
B2359505024499N11546609WA0277802883000031015000
B0000065024879N11546539WA0280402873000034015000
B0000225024889N11546519WA0287302941000031015000
B0000385024828N11546519WA0290902981000028015000
B0000545024768N11546409WA0291803011000026015000
B0001105024808N11546259WA0295403047000022015000
B0001265024879N11546349WA0298003072000024015000
B0001425025109N11546359WA0290903010000028015000
B0001585025338N11546718WA0289102978000033015000
B0002145025588N11546709WA0290903010000027015000
B0002305025638N11547159WA0289102985000030015000
B0002465025879N11547408WA0291803021000028015000
B0003025025978N11547329WA0290903010000028015000
B0003185025919N11547620WA0292703011000029015000
B0003345026148N11547869WA0293503029000027015000
B0003505026309N11547899WA0296203069000027015000
B0004065026278N11547919WA0302503114000029015000
B0004225026309N11547878WA0308803172000028015000
B0004385026339N11547869WA0313303232000027015000
B0004545026309N11547939WA0319603295000024015000
B0005105026259N11547889WA0325103348000024015000
B0005265026269N11547639WA0329703400000021015000
B0005425026358N11547719WA0332403434000022015000
B0005585026318N11547759WA0338003483000022015000
B0006145026269N11547679WA0341603518000025015000
B0006305026309N11547469WA0345403560000020015000
B0006465026408N11547459WA0350103603000022015000
B0007025026389N11547509WA0354003645000024015000
B0007185026339N11547349WA0358503698000022015000
B0007345026418N11547238WA0364403741000021015000
B0007505026439N11547479WA0365303776000024015000
B0008065026638N11547779WA0362503741000026015000
B0008225026869N11548079WA0360403717000027015000
B0008385027098N11548429WA0355703671000029015000
B0008545027238N11548899WA0355703663000032015000
B0009105027308N11549340WA0354003660000029015000
B0009265027509N11549739WA0352003625000028015000
B0009425027798N11549979WA0349303604000032015000
B0009585028149N11549959WA0350103617000032015000
B0010145028489N11549940WA0347403589000032015000
B0010305028808N11549959WA0343603551000029015000
B0010465029158N11550079WA0338903491000031015000
B0011025029508N11550089WA0338003490000027015000
B0011185029869N11550028WA0338003483000025015000
B0011345030209N11549940WA0337103476000023015000
B0011505030538N11549929WA0334303457000022015000
B0012065030878N11549949WA0332403437000027015000
B0012225031178N11549999WA0330503429000028015000
B0012385031509N11550089WA0328803401000029015000
B0012545031839N11550129WA0327803381000030015000
B0013105032158N11550070WA0327803383000029015000
B0013265032449N11550249WA0326903386000028015000
B0013425032789N11550319WA0323203335000030015000
B0013585033108N11550379WA0325103358000031015000
B0014145033399N11550429WA0329703372000028015000
B0014305033328N11550379WA0330503403000026015000
B0014465033278N11550249WA0334303439000026015000
B0015025033318N11550118WA0339703491000024015000
B0015185033318N11550299WA0341603516000025015000
B0015345033529N11550418WA0343603558000036015000
B0015505033808N11550609WA0338903506000026015000
B0016065034098N11550839WA0337103481000025015000
B0016225034368N11551109WA0334303452000028015000
B0016385034658N11551379WA0329703412000030015000
B0016545034928N11551699WA0328803397000032015000
B0017105035159N11552129WA0326003371000028015000
B0017265035358N11552509WA0330503423000028015000
B0017425035558N11552889WA0326003361000028015000
B0017585035778N11553319WA0323203343000029015000
B0018145036099N11553559WA0318703304000031015000
B0018305036458N11553759WA0318703298000028015000
B0018465036829N11553879WA0316003271000030015000
B0019025037148N11553980WA0318703299000029015000
B0019185037439N11554209WA0313303238000028015000
B0019345037798N11554339WA0310603212000028015000
B0019505038138N11554319WA0309503207000031015000
B0020065038419N11554498WA0312403232000031015000
B0020225038658N11554689WA0311603226000023015000
B0020385038918N11554909WA0311603221000027015000
B0020545039239N11555098WA0309503191000031015000
B0021105039489N11555409WA0308803176000031015000
B0021265039529N11555329WA0315103243000024015000
B0021425039508N11555299WA0321503305000027015000
B0021585039539N11555219WA0326003352000025015000
B0022145039548N11555349WA0327803380000023015000
B0022305039489N11555199WA0329703404000021015000
B0022465039659N11555509WA0330503412000022015000
B0023025039768N11555979WA0327803379000030015000
B0023185039839N11556509WA0325103358000031015000
B0023345039948N11556988WA0325103347000030015000
B0023505040009N11557489WA0324103351000030015000
B0024065040038N11558009WA0321503316000030015000
B0024225040059N11558509WA0324103341000029015000
B0024385040128N11558819WA0328803393000027015000
B0024545040078N11558799WA0330503423000023015000
B0025105040018N11558649WA0333203450000020015000
B0025265040108N11558629WA0338003472000024015000
B0025425040018N11558769WA0339703499000022015000
B0025585040049N11558519WA0343603538000024015000
B0026145039978N11558769WA0340903523000023015000
B0026305040238N11558699WA0343603551000020015000
B0026465040519N11558999WA0336003483000028015000
B0027025040779N11559329WA0336003475000026015000
B0027185041048N11559608WA0337103487000027015000
B0027345041288N11559929WA0335203460000026015000
B0027505041538N11600229WA0334303452000027015000
B0028065041828N11600449WA0330503422000027015000
B0028225042088N11600609WA0337103470000024015000
B0028385042348N11600668WA0336003475000021015000
B0028545042669N11600779WA0330503422000031015000
B0029105043038N11600689WA0330503409000034015000
B0029265043388N11600819WA0326003373000031015000
B0029425043608N11601249WA0324103348000030015000
B0029585043789N11601738WA0322303322000029015000
B0030145043959N11602218WA0320603309000031015000
B0030305044098N11602709WA0317903281000030015000
B0030465044188N11603199WA0316903275000029015000
B0031025044358N11603648WA0315103247000033015000
B0031185044458N11604078WA0314303252000027015000
B0031345044488N11604588WA0309503211000030015000
B0031505044458N11605068WA0311603210000030015000
B0032065044538N11605188WA0313303254000024015000
B0032225044479N11605249WA0316903279000025015000
B0032385044368N11605098WA0320603309000022015000
B0032545044479N11605008WA0321503321000020015000
B0033105044328N11604918WA0321503330000019015000
B0033265044479N11605188WA0321503329000023015000
B0033425044599N11605549WA0324103350000023015000
B0033585044819N11605778WA0323203345000027015000
B0034145045068N11605989WA0320603316000026015000
B0034305045278N11606329WA0318703295000030015000
B0034465045568N11606549WA0316903281000030015000
B0035025045929N11606549WA0315103247000028015000
B0035185046268N11606528WA0311603232000025015000
B0035345046598N11606468WA0311603222000025015000
B0035505046958N11606409WA0308803196000025015000
B0036065047298N11606279WA0306903182000028015000
B0036225047619N11606128WA0306903175000030015000
B0036385047928N11605908WA0306003150000030015000
B0036545048129N11605629WA0306003165000024015000
B0037105047919N11605438WA0308803184000021015000
B0037265048028N11605448WA0309503194000022015000
B0037425047838N11605289WA0310603209000019015000
B0037585047909N11605159WA0311603223000023015000
B0038145047909N11604978WA0311603219000022015000
B0038305047739N11605029WA0316903276000018015000
B0038465047909N11605079WA0316903258000025015000
B0039025048098N11605419WA0311603218000029015000
B0039185048328N11605738WA0311603225000027015000
B0039345048538N11606078WA0310603219000026015000
B0039505048738N11606419WA0311603218000025015000
B0040065048978N11606719WA0306903180000029015000
B0040225049278N11606969WA0305103154000030015000
B0040385049558N11607248WA0301603123000027015000
B0040545049839N11607569WA0298003088000031015000
B0041105049969N11608058WA0296203061000032015000
B0041265049948N11608569WA0295403052000028015000
B0041425049908N11608989WA0297103074000026015000
B0041585050099N11608819WA0299803100000026015000
B0042145050048N11608999WA0296203076000026015000
B0042305050038N11608739WA0295403060000023015000
B0042465049908N11608949WA0296203077000022015000
B0043025050208N11608888WA0294303057000027015000
B0043185050529N11608748WA0296203062000030015000
B0043345050858N11608698WA0294303050000030015000
B0043505051179N11608739WA0291803022000032015000
B0044065051468N11608968WA0291803021000029015000
B0044225051748N11609209WA0291803017000028015000
B0044385052008N11609228WA0292703037000023015000
B0044545052129N11609578WA0288302980000028015000
B0045105052018N11609239WA0282902934000029015000
B0045265051768N11608909WA0282902931000027015000
B0045425051819N11608928WA0283802938000025015000
B0045585051788N11608848WA0283802933000027015000
B0046145051798N11608798WA0286502952000028015000
B0046305051748N11608769WA0287302975000025015000
B0046465051729N11608599WA0289103005000022015000
B0047025051808N11608519WA0290903009000022015000
B0047185051729N11608779WA0289103003000020015000
B0047345051748N11609228WA0282902934000030015000
B0047505051768N11609679WA0284702936000028015000
B0048065051928N11609988WA0284702947000026015000
B0048225051888N11609939WA0288302969000025015000
B0048385051978N11609788WA0289102988000022015000
B0048545051959N11609858WA0289102987000024015000
B0049105051888N11609759WA0290002996000024015000
B0049265051888N11609669WA0291803016000023015000
B0049425051978N11609608WA0293503037000021015000
B0049585051968N11609729WA0293503038000024015000
B0050145051898N11609558WA0296203049000023015000
B0050305051989N11609478WA0298003077000023015000
B0050465051968N11609528WA0298003076000023015000
B0051025051898N11609249WA0299803103000020015000
B0051185051838N11609539WA0300703113000019015000
B0051345051928N11609358WA0298903097000020015000
B0051505051668N11609278WA0298003080000021015000
B0052065051488N11608859WA0295403051000027015000
B0052225051229N11608689WA0294303042000025015000
B0052385050938N11608548WA0290903012000026015000
B0052545050638N11608299WA0290002996000029015000
B0053105050388N11607928WA0287302966000030015000
B0053265050378N11607829WA0290002986000028015000
B0053425050328N11607839WA0290903001000024015000
B0053585050269N11607619WA0292703029000023015000
B0054145050428N11607628WA0294303043000018015000
B0054305050308N11607439WA0295403050000025015000
B0054465050319N11607338WA0294303043000024015000
B0055025050168N11607598WA0294303036000021015000
B0055185050269N11607688WA0290902998000021015000
B0055345050239N11607248WA0289102978000027015000
B0055505049939N11607019WA0282902937000030015000
B0056065049578N11606799WA0281202908000035015000
B0056225049249N11606679WA0280402895000031015000
B0056385048958N11606319WA0276902862000033015000
B0056545048668N11605968WA0276902868000032015000
B0057105048368N11605668WA0276002853000032015000
B0057265048198N11605159WA0274402839000030015000
B0057425048058N11604888WA0276902874000025015000
B0057585048098N11604699WA0278702878000023015000
B0058145047919N11604448WA0275202847000024015000
B0058305047638N11604378WA0270902792000029015000
B0058465047349N11604018WA0268302783000030015000
B0059025047059N11603739WA0269102777000031015000
B0059185046718N11603669WA0264702744000034015000
B0059345046359N11603428WA0263102717000036015000
B0059505046048N11603139WA0263802738000026015000
B0100065045838N11602969WA0265702755000027015000
B0100225045798N11602738WA0263802750000026015000
B0100385045478N11602478WA0260602685000033015000
B0100545045228N11602138WA0264702728000028015000
B0101105045238N11602128WA0263802727000027015000
B0101265044999N11601949WA0264702726000024015000
B0101425044848N11601679WA0266502762000025015000
B0101585044928N11601689WA0267302770000024015000
B0102145044918N11601609WA0271702802000027015000
B0102305044909N11601549WA0273402821000027015000
B0102465044968N11601658WA0276902859000023015000
B0103025044838N11601689WA0273402830000024015000
B0103185044609N11601368WA0273402819000026015000
B0103345044358N11601119WA0275202839000024015000
B0103505044378N11601188WA0275202843000024015000
B0104065044248N11601188WA0276002852000023015000
B0104225044408N11601318WA0275202848000020015000
B0104385044208N11601049WA0275202839000025015000
B0104545044219N11601039WA0276002846000024015000
B0105105044009N11600898WA0274402841000022015000
B0105265043789N11600508WA0273402815000027015000
B0105425043518N11600319WA0271702807000027015000
B0105585043198N11600128WA0270902799000027015000
B0106145042849N11559939WA0269902784000031015000
B0106305042579N11559698WA0275202830000026015000
B0106465042608N11559738WA0275202844000023015000
B0107025042428N11559749WA0275202842000021015000
B0107185042178N11559929WA0273402822000025015000
B0107345041878N11600108WA0268302778000032015000
B0107505041578N11600229WA0264702746000032015000
B0108065041278N11559899WA0265702745000033015000
B0108225040978N11559709WA0263802733000029015000
B0108385040689N11559539WA0262202708000029015000
B0108545040519N11559608WA0263802730000028015000
B0109105040439N11559489WA0263102705000026015000
B0109265040408N11559499WA0263102707000027015000
B0109425040389N11559459WA0265702734000027015000
B0109585040399N11559398WA0268302759000025015000
B0110145040408N11559398WA0271702791000025015000
B0110305040389N11559429WA0272602808000025015000
B0110465040298N11559379WA0274402830000022015000
B0111025040269N11559199WA0276002852000026015000
B0111185040349N11559239WA0276002844000023015000
B0111345040188N11559019WA0275202847000022015000
B0111505040168N11559089WA0271702822000022015000
B0112065039948N11558759WA0269902805000025015000
B0112225039698N11558399WA0269102798000028015000
B0112385039558N11557899WA0264702735000029015000
B0112545039608N11557378WA0265702751000029015000
B0113105039678N11556858WA0263802724000031015000
B0113265039718N11556369WA0264702740000028015000
B0113425039709N11555899WA0264702730000027015000
B0113585039718N11555870WA0269102770000027015000
B0114145039749N11555879WA0272602799000027015000
B0114305039759N11555879WA0273402826000027015000
B0114465039718N11555909WA0276902853000025015000
B0115025039678N11555689WA0278702870000024015000
B0115185039759N11555658WA0278702874000025015000
B0115345039759N11555709WA0281202902000024015000
B0115505039759N11555719WA0282202918000025015000
B0116065039669N11555698WA0284702934000025015000
B0116225039678N11555528WA0286502957000023015000
B0116385039678N11555749WA0283802947000018015000
B0116545039768N11555429WA0284702951000020015000
B0117105039709N11555658WA0286502954000022015000
B0117265039879N11555658WA0287302956000022015000
B0117425039688N11555349WA0284702929000025015000
B0117585039529N11555109WA0283802926000025015000
B0118145039268N11555109WA0282202919000027015000
B0118305039019N11554829WA0282202917000026015000
B0118465038748N11554628WA0282202917000027015000
B0119025038538N11554619WA0279602895000025015000
B0119185038459N11554519WA0282902919000026015000
B0119345038448N11554408WA0286502970000025015000
B0119505038419N11554280WA0290903006000025015000
B0120065038438N11554299WA0295403049000024015000
B0120225038428N11554229WA0298003074000024015000
B0120385038358N11554089WA0300703105000020015000
B0120545038348N11553980WA0303403129000024015000
B0121105038388N11553859WA0305103148000022015000
B0121265038348N11554129WA0303403129000023015000
B0121425038408N11554429WA0306003154000024015000
B0121585038358N11554189WA0306003169000022015000
B0122145038408N11554068WA0307903169000026015000
B0122305038428N11554099WA0308803188000025015000
B0122465038339N11554068WA0311603210000024015000
B0123025038348N11553829WA0313303228000024015000
B0123185038408N11553829WA0313303236000024015000
B0123345038298N11553850WA0314303236000025015000
B0123505038278N11553629WA0316003261000023015000
B0124065038358N11553649WA0316903268000022015000
B0124225038218N11553619WA0316003257000024015000
B0124385038289N11553449WA0316003258000023015000
B0124545038138N11553749WA0311603214000022015000
B0125105037848N11553898WA0308803188000025015000
B0125265037488N11553909WA0306003156000031015000
B0125425037148N11553889WA0304303143000030015000
B0125585036798N11553829WA0304303132000032015000
B0126145036458N11553850WA0300703105000031015000
B0126305036118N11553669WA0299803102000032015000
B0126465035938N11553149WA0297103071000030015000
B0127025035788N11552589WA0296203057000030015000
B0127185035638N11552069WA0297103065000029015000
B0127345035378N11551689WA0295403050000027015000
B0127505035109N11551358WA0292703030000029015000
B0128065034769N11551239WA0292703016000031015000
B0128225034469N11550978WA0290903002000028015000
B0128385034159N11550829WA0289102984000032015000
B0128545033838N11550749WA0288302979000031015000
B0129105033548N11550548WA0287302970000028015000
B0129265033338N11550689WA0290903004000026015000
B0129425033278N11550500WA0291803002000021015000
B0129585033309N11550429WA0293503012000024015000
B0130145033328N11550349WA0295403043000024015000
B0130305033318N11550288WA0296203050000025015000
B0130465033328N11550229WA0298003072000024015000
B0131025033288N11550269WA0299803097000021015000
B0131185033219N11550198WA0300703101000022015000
B0131345033179N11550039WA0304303131000024015000
B0131505033248N11549919WA0306003151000023015000
B0132065033238N11550009WA0306003167000020015000
B0132225033118N11549919WA0307903176000021015000
B0132385033278N11549889WA0307903173000018015000
B0132545033259N11550079WA0303403142000020015000
B0133105032919N11550049WA0301603116000030015000
B0133265032598N11549779WA0300703106000030015000
B0133425032319N11549428WA0299803096000030015000
B0133585031998N11549269WA0297103071000030015000
B0134145031669N11549089WA0295403047000030015000
B0134305031338N11549279WA0290903009000032015000
B0134465030968N11549428WA0287302973000033015000
B0135025030599N11549479WA0288302969000032015000
B0135185030288N11549659WA0285802958000029015000
B0135345029949N11549558WA0287302959000030015000
B0135505029938N11549519WA0289102986000026015000
B0136065029858N11549649WA0290903009000021015000
B0136225029789N11549549WA0292703020000024015000
B0136385029829N11549388WA0293503025000022015000
B0136545029749N11549539WA0294303042000021015000
B0137105029789N11549258WA0297103058000020015000
B0137265029819N11549258WA0297103071000022015000
B0137425029768N11549319WA0299803092000020015000
B0137585029649N11549210WA0301603107000023015000
B0138145029708N11549059WA0301603120000020015000
B0138305029718N11549189WA0302503130000020015000
B0138465029598N11549038WA0302503128000021015000
B0139025029659N11548939WA0304303131000020015000
B0139185029468N11548989WA0302503136000017015000
B0139345029179N11548868WA0300703112000025015000
B0139505028889N11548619WA0298003083000028015000
B0140065028568N11548499WA0295403058000028015000
B0140225028218N11548549WA0291803020000033015000
B0140385027849N11548539WA0290003003000033015000
B0140545027509N11548459WA0288302984000032015000
B0141105027169N11548429WA0288302980000031015000
B0141265026848N11548369WA0285802958000031015000
B0141425026519N11548228WA0282902931000032015000
B0141585026269N11547889WA0281202915000028015000
B0142145026049N11547538WA0282202913000027015000
B0142305025829N11547209WA0281202918000024015000
B0142465025598N11546859WA0280402900000026015000
B0143025025579N11546869WA0281202916000024015000
B0143185025518N11546949WA0282902939000022015000
B0143345025458N11546909WA0284702949000022015000
B0143505025409N11546689WA0285802981000019015000
B0144065025579N11546779WA0286502969000020015000
B0144225025378N11546678WA0286502978000020015000
B0144385025399N11546519WA0288302990000022015000
B0144545025099N11546460WA0283802930000028015000
B0145105024799N11546489WA0282202923000028015000
B0145265024488N11546619WA0279602899000031015000
B0145425024218N11546899WA0279602877000032015000
B0145585023958N11546919WA0278702879000022015000
B0146145023679N11547020WA0276902858000025015000
B0146305023538N11546978WA0276002862000024015000
B0146465023689N11547099WA0278702879000021015000
B0147025023398N11547238WA0273402832000028015000
B0147185023068N11547238WA0274402847000028015000
B0147345022728N11547289WA0269902800000031015000
B0147505022399N11547320WA0270902812000029015000
B0148065022068N11547278WA0269102782000029015000
B0148225021768N11547099WA0269902794000028015000
B0148385021449N11547020WA0268302779000028015000
B0148545021149N11547009WA0267302760000028015000
B0149105020858N11546929WA0267302761000027015000
B0149265020618N11546938WA0269902788000023015000
B0149425020639N11546848WA0269902778000022015000
B0149585020408N11546978WA0269902782000022015000
B0150145020159N11547049WA0266502769000025015000
B0150305019859N11547068WA0267302756000030015000
B0150465019649N11546929WA0269102783000022015000
B0151025019739N11547029WA0268302777000021015000
B0151185019538N11546779WA0266502756000027015000
B0151345019268N11546649WA0267302765000026015000
B0151505019009N11546649WA0267302767000022015000
B0152065018758N11546859WA0264702744000025015000
B0152225018479N11547009WA0263802727000023015000
B0152385018238N11546909WA0264702730000022015000
B0152545018009N11546739WA0262202717000024015000
B0153105017738N11546569WA0261302708000027015000
B0153265017459N11546689WA0260602692000029015000
B0153425017159N11546829WA0257802668000032015000
B0153585016849N11546808WA0255402643000033015000
B0154145016618N11547089WA0255402639000031015000
B0154305016308N11547020WA0255402630000032015000
B0154465016329N11546999WA0255402627000026015000
B0155025016119N11546949WA0254502643000020015000
B0155185015859N11547119WA0255402636000026015000
B0155345015638N11547389WA0252002608000029015000
B0155505015368N11547668WA0248602577000033015000
B0156065015038N11547739WA0245202543000032015000
B0156225014728N11547578WA0245202535000030015000
B0156385014458N11547278WA0243502519000028015000
B0156545014208N11547009WA0243502521000029015000
B0157105013948N11546768WA0242702518000024015000
B0157265013679N11546519WA0240102485000028015000
B0157425013419N11546269WA0240102482000028015000
B0157585013178N11546029WA0237602465000028015000
B0158145012928N11545778WA0235802443000028015000
B0158305012649N11545619WA0234202422000026015000
B0158465012339N11545629WA0232602392000029015000
B0159025012058N11545619WA0230202371000028015000
B0159185011779N11545478WA0229302370000031015000
B0159345011538N11545359WA0230802393000026015000
B0159505011309N11545209WA0228402371000056015000
B0200065011089N11544989WA0226902354000032015000
B0200225010858N11544769WA0226902351000026015000
B0200385010659N11544509WA0225202336000027015000
B0200545010468N11544249WA0225202329000025015000
B0201105010279N11543979WA0224302318000025015000
B0201265010059N11543758WA0221102291000025015000
B0201425009809N11543579WA0219402279000028015000
B0201585009538N11543588WA0220202278000028015000
B0202145009318N11543769WA0218502264000025015000
B0202305009069N11543729WA0217702255000025015000
B0202465008828N11543668WA0216902251000024015000
B0203025008569N11543668WA0216102236000029015000
B0203185008309N11543668WA0214502219000024015000
B0203345008039N11543679WA0212002200000026015000
B0203505007758N11543729WA0210402183000027015000
B0204065007498N11543758WA0212002192000026015000
B0204225007638N11543979WA0208002160000026015000
B0204385007959N11543999WA0206402138000027015000
B0204545008288N11544049WA0203802115000024015000
B0205105008639N11544188WA0203002100000027015000
B0205265008938N11544339WA0202302098000027015000
B0205425009268N11544389WA0199902076000030015000
B0205585009578N11544528WA0200802077000028015000
B0206145009838N11544748WA0199002064000027015000
B0206305010128N11544949WA0198402054000027015000
B0206465010428N11545048WA0199002065000026015000
B0207025010738N11545189WA0198402049000027015000
B0207185011038N11545348WA0197502049000026015000
B0207345011338N11545529WA0195802032000025015000
B0207505011659N11545679WA0195802019000024015000
B0208065011978N11545749WA0194202014000027015000
B0208225012259N11546039WA0194202006000027015000
B0208385012498N11546359WA0192601998000022015000
B0208545012738N11546678WA0191801992000025015000
B0209105012968N11547020WA0191001979000025015000
B0209265013209N11547359WA0189501964000027015000
B0209425013478N11547659WA0188701948000027015000
B0209585013748N11547939WA0188001943000027015000
B0210145014038N11548189WA0187101935000027015000
B0210305014319N11548409WA0185501924000029015000
B0210465014608N11548619WA0185501924000027015000
B0211025014879N11548879WA0184701911000027015000
B0211185015148N11549179WA0181501886000025015000
B0211345015458N11549369WA0180801866000026015000
B0211505015729N11549640WA0178301853000025015000
B0212065016058N11549688WA0176001820000028015000
B0212225016368N11549849WA0173701799000030015000
B0212385016578N11550209WA0174501807000027015000
B0212545016818N11550489WA0174501803000026015000
B0213105017088N11550679WA0174501802000025015000
B0213265017338N11550888WA0173701793000027015000
B0213425017598N11551069WA0173001784000027015000
B0213585017898N11551069WA0171401771000027015000
B0214145018198N11551058WA0169001747000027015000
B0214305018498N11551209WA0168201740000025015000
B0214465018789N11551349WA0166701725000027015000
B0215025019098N11551239WA0164301700000025015000
B0215185019448N11551259WA0162101674000027015000
B0215345019779N11551349WA0162101672000025015000
B0215505020079N11551469WA0160601660000025015000
B0216065020379N11551559WA0159601650000024015000
B0216225020679N11551599WA0158901638000025015000
B0216385020979N11551679WA0157401623000026015000
B0216545021248N11551889WA0156501611000026015000
B0217105021518N11552129WA0156501613000024015000
B0217265021789N11552329WA0155001604000025015000
B0217425022059N11552529WA0153601588000023015000
B0217585022318N11552749WA0153601584000024015000
B0218145022569N11552969WA0152801576000024015000
B0218305022819N11553168WA0152001568000025015000
B0218465023098N11553329WA0150501548000026015000
B0219025023398N11553420WA0148901535000024015000
B0219185023689N11553468WA0148901534000025015000
B0219345023968N11553609WA0147401517000027015000
B0219505024268N11553789WA0145801504000026015000
B0220065024558N11553938WA0145801499000028015000
B0220225024839N11554009WA0145201488000027015000
B0220385024748N11553759WA0142101466000028015000
B0220545024528N11553579WA0140501450000025015000
B0221105024318N11553359WA0139901436000027015000
B0221265024088N11553219WA0139101431000028015000
B0221425023878N11553089WA0138301427000027015000
B0221585023689N11552959WA0137601423000026015000
B0222145023488N11552820WA0137601418000028015000
B0222305023289N11552659WA0136101400000028015000
B0222465023098N11552469WA0135301389000027015000
B0223025022909N11552279WA0134601380000027015000
B0223185022718N11552109WA0134601381000027015000
B0223345022519N11551999WA0133001369000027015000
B0223505022309N11551909WA0131601350000030015000
B0224065022089N11552029WA0129401332000026015000
B0224225021848N11552079WA0129401327000025015000
B0224385021619N11551999WA0128501322000024015000
B0224545021428N11551859WA0127901319000024015000
B0225105021239N11551708WA0127101313000026015000
B0225265021038N11551569WA0126301298000027015000
B0225425020828N11551429WA0125701288000028015000
B0225585020629N11551309WA0125001281000025015000
B0226145020438N11551179WA0123401272000027015000
B0226305020228N11551109WA0121901254000028015000
B0226465020018N11551230WA0120401239000028015000
B0227025019809N11551159WA0120401233000027015000
B0227185019599N11551199WA0117601200000028015000
B0227345019389N11551230WA0116801197000024015000
B0227505019188N11551230WA0116801191000024015000
B0228065019009N11551278WA0114601177000023015000
B0228225018808N11551369WA0113801164000027015000
B0228385018909N11551618WA0111701141000025015000
B0228545019228N11551559WA0110201125000035015000
B0229105019538N11551469WA0108801113000036015000
B0229265019798N11551469WA0107301099000038015000
B0229425019769N11551849WA0107301092000036015000
B0229585019708N11552189WA0105901080000037015000
B0230145019609N11552509WA0103601054000040015000
B0230305019559N11552868WA0101501036000040015000
B0230465019819N11553038WA0101501035000036015000
B0231025020079N11553199WA0100701020000037015000
B0231185020358N11553319WA0099301010000036015000
B0231345020639N11553319WA0097800995000038015000
B0231505020818N11553029WA0096400977000038015000
B0232065020828N11552679WA0095700971000036015000
B0232225020618N11552599WA0090000915000038015000
B0232385020388N11552539WA0084100860000043015000
B0232545020138N11552489WA0080700816000040015000
B0233105019939N11552438WA0080700811000083015002
B0233265019798N11552399WA0080700812000128015002
B0233425019708N11552369WA0080700814000061015000
B0233585019689N11552348WA0080700813000027015000
B0234145019689N11552348WA0080700814000011015000
B0234305019689N11552348WA0080700814000002015000
B0234305019689N11552348WA0080700814000002015000
